:020000040000FA
:100000000C945E000C9486000C9486000C94860080
:100010000C9486000C9486000C9486000C94860048
:100020000C9486000C9486000C9486000C940405B5
:100030000C9486000C9486000C9486000C94860028
:100040000C9462040C9486000C94D2040C94AC04BE
:100050000C9486000C9486000C9486000C94860008
:100060000C9486000C9486000000000024002700F9
:100070002A0000000000250028002B0004040404CE
:100080000404040402020202020203030303030342
:10009000010204081020408001020408102001021F
:1000A00004081020000000080002010000030407FB
:1000B0000000000000000000C005C60811241FBE9B
:1000C000CFEFD8E0DEBFCDBF11E0A0E0B1E0EEE1C0
:1000D000F7E102C005900D92AC39B107D9F722E0E3
:1000E000ACE9B1E001C01D92AB37B207E1F710E017
:1000F000CDE5D0E004C02197FE010E948109CC35F6
:10010000D107C9F70E9430060C94820B0C940000B2
:100110008F929F92AF92BF92FF920F931F93CF93B4
:10012000DF93F09074022BE02F1508F44CC020915F
:10013000760208E512E0021B110927FD1395000F56
:10014000111F000F111F20917502C8E8D0E0C21BDB
:10015000D10927FDD395CC0FDD1FCC0FDD1F4E013C
:100160000D2E000CAA08BB089801012E000C440BB0
:10017000550B281939094A095B09DC010E94050958
:1001800024EB30E040E050E00E94DB08820E931E3A
:10019000A41EB51E8C169D062CF0E8018016910653
:1001A0000CF4E4012297CC0FDD1F2FB7F8948F2DAC
:1001B00090E0FC01EE0FFF1FE80FF91FE75BFD4F1A
:1001C000D283C1832FBFDF91CF911F910F91FF90F9
:1001D000BF90AF909F908F90089590E0FC01EC55F8
:1001E000FF4F2491FC01E057FF4F3491FC01E4588C
:1001F000FF4FE491EE23C9F0222339F0233001F1BF
:10020000A8F4213019F1223029F1F0E0EE0FFF1FA0
:10021000EE58FF4FA591B4918FB7F894EC9161110E
:1002200026C030953E233C938FBF08952730A9F018
:100230002830C9F0243049F7809180008F7D03C0B9
:10024000809180008F7780938000DFCF84B58F7797
:1002500084BDDBCF84B58F7DFBCF8091B0008F77DD
:100260008093B000D2CF8091B0008F7DF9CF3E2B2C
:10027000DACFCF93DF9390E0FC01E057FF4F24915A
:1002800084589F4FFC0184918823D1F090E0880F1F
:10029000991FFC01E859FF4FA591B491FC01EE585C
:1002A000FF4FC591D49161110EC09FB7F8948C9106
:1002B000E22FE0958E238C932881E223E8839FBF71
:1002C000DF91CF9108958FB7F894EC91E22BEC93E6
:1002D0008FBFF6CF1F93CF93DF93182FEB0161E011
:1002E0000E943901209739F460E0812FDF91CF918E
:1002F0001F910C94ED00CF3FD10511F461E0F5CFD3
:10030000E12FF0E0EC55FF4FE491E33031F140F4A0
:10031000E130B1F0E230E1F0C038D1057CF7E4CF54
:10032000E73029F1E83059F1E430B1F780918000ED
:10033000806280938000D0938B00C0938A0004C0B9
:1003400084B5806884BDC7BDDF91CF911F910895AA
:1003500084B5806284BDC8BDF7CF8091800080687D
:1003600080938000D0938900C0938800EDCF809166
:10037000B00080688093B000C093B300E5CF809157
:10038000B00080628093B000C093B400DDCF3FB76F
:10039000F8948091A8019091A901A091AA01B0912F
:1003A000AB0126B5A89B05C02F3F19F00196A11DF2
:1003B000B11D3FBFBA2FA92F982F8827BC01CD01AF
:1003C000620F711D811D911D42E0660F771F881F0E
:1003D000991F4A95D1F708958F929F92AF92BF923D
:1003E000CF92DF92EF92FF924B015C010E94C70116
:1003F0006B017C010E94C7016C197D098E099F0960
:10040000683E734081059105A8F321E0821A9108A6
:10041000A108B10888EEC80E83E0D81EE11CF11CCB
:1004200081149104A104B10429F7FF90EF90DF90AB
:10043000CF90BF90AF909F908F900895AF92BF9252
:10044000CF92DF92EF92FF920F931F93CF93DF93A0
:100450006C017B018B01040F151FEB015E01AE18CF
:10046000BF08C017D10759F06991D601ED91FC91F1
:100470000190F081E02DC6010995892B79F7C5011E
:10048000DF91CF911F910F91FF90EF90DF90CF9070
:10049000BF90AF900895FC01538D448D252F30E01F
:1004A000842F90E0821B930B541710F0CF96089581
:1004B00001970895FC01918D828D981761F0A28DAE
:1004C000AE0FBF2FB11D5D968C91928D9F5F9F7374
:1004D000928F90E008958FEF9FEF0895FC01918D2A
:1004E000828D981731F0828DE80FF11D858D90E097
:1004F00008958FEF9FEF0895FC01918D228D892F34
:1005000090E0805C9F4F821B91098F73992708951B
:100510008CEA91E00E947C0221E0892B09F420E022
:10052000822F089580E090E0892B29F00E948802B4
:1005300081110C9400000895FC01A48DA80FB92F1F
:10054000B11DA35ABF4F2C91848D90E001968F73FB
:100550009927848FA689B7892C93A089B1898C911A
:10056000837080648C93938D848D981306C0028869
:10057000F389E02D80818F7D80830895EF92FF9233
:100580000F931F93CF93DF93EC0181E0888F9B8DB6
:100590008C8D98131AC0E889F989808185FF15C070
:1005A0009FB7F894EE89FF896083E889F989808193
:1005B0008370806480839FBF81E090E0DF91CF9162
:1005C0001F910F91FF90EF900895F62E0B8D10E084
:1005D0000F5F1F4F0F731127E02E8C8D8E110CC0F3
:1005E0000FB607FCFACFE889F989808185FFF5CF3E
:1005F000CE010E949C02F1CFEB8DEC0FFD2FF11D7F
:10060000E35AFF4FF0829FB7F8940B8FEA89FB897A
:1006100080818062CFCFCF93DF93EC01888D8823D8
:10062000B9F0AA89BB89E889F9898C9185FD03C055
:10063000808186FD0DC00FB607FCF7CF8C9185FF3A
:10064000F2CF808185FFEDCFCE010E949C02E9CFE1
:10065000DF91CF91089580EA90E00E94880064E6DF
:1006600070E080E090E00E94EC0184E190E00E9464
:10067000880064E670E080E090E00E94EC0185E58F
:1006800090E00E94880080EA90E00E94880064E682
:1006900070E080E090E00E94EC0184E190E00E9434
:1006A000880064E670E080E090E00E94EC0185E55F
:1006B00090E00E94880080EA90E00E94880064E652
:1006C00070E080E090E00E94EC0184E190E00E9404
:1006D000880064E670E080E090E00E94EC0185E52F
:1006E00090E00E94880080EA90E00E94880064E622
:1006F00070E080E090E00E94EC0184E190E00E94D4
:10070000880064E670E080E090E00E94EC0185E5FE
:1007100090E00C94880061E087E00E94ED0060E0CA
:1007200088E00E94ED0061E082E00E94ED0060E060
:1007300084E00C94ED0061E087E00E94ED0061E050
:1007400088E00E94ED0061E082E00E94ED0061E03F
:1007500084E00C94ED0061E087E00E94ED0060E031
:1007600088E00E94ED0060E082E00E94ED0061E020
:1007700084E00C94ED0060E087E00E94ED0061E011
:1007800088E00E94ED0061E082E00E94ED0060E000
:1007900084E00C94ED0060E087E00E94ED0061E0F1
:1007A00088E00E94ED0060E082E00E94ED0061E0E0
:1007B00084E00C94ED0042E050E068E171E08CEAE6
:1007C00091E00C941E02CF93DF93FC010190002076
:1007D000E9F73197AF01481B590BBC018CEA91E056
:1007E0000E941E02EC010E94DB038C0F9D1FDF9113
:1007F000CF910895FC0124813581232B39F421E028
:10080000FB018081882349F020E007C0808191812D
:100810000E94720B21E0892BB9F7822F08950F9364
:100820001F93CF93DF93EC0188819981009759F052
:100830002A813B812617370730F081E0DF91CF9185
:100840001F910F9108958B016F5F7F4F0E94AC0A3B
:10085000009759F0998388831B830A832C813D81FB
:10086000232B59F7FC011082E8CF80E0E7CFEF920D
:10087000FF920F931F93CF93DF93EC017B018A01CB
:10088000BA010E940F0428813981811114C02115F9
:10089000310519F0C9010E94230A198218821D82AC
:1008A0001C821B821A82CE01DF91CF911F910F9182
:1008B000FF90EF9008951D830C83B701C9010E943A
:1008C0007B0BF1CF1F920F920FB60F9211242F9333
:1008D0003F938F939F93AF93BF938091A401909187
:1008E000A501A091A601B091A7013091A30123E039
:1008F000230F2D3758F50196A11DB11D2093A3019B
:100900008093A4019093A501A093A601B093A701A1
:100910008091A8019091A901A091AA01B091AB0189
:100920000196A11DB11D8093A8019093A901A093E8
:10093000AA01B093AB01BF91AF919F918F913F916D
:100940002F910F900FBE0F901F90189526E8230F40
:100950000296A11DB11DD2CF1F920F920FB60F921A
:1009600011242F933F934F935F936F937F938F93B4
:100970009F93AF93BF93EF93FF938CEA91E00E9414
:100980009C02FF91EF91BF91AF919F918F917F91C9
:100990006F915F914F913F912F910F900FBE0F90EC
:1009A0001F9018951F920F920FB60F9211242F933C
:1009B0008F939F93EF93FF93E091BC01F091BD0162
:1009C0008081E091C201F091C30182FD1BC0908142
:1009D0008091C5018F5F8F732091C601821741F00E
:1009E000E091C501F0E0E455FE4F958F8093C5017D
:1009F000FF91EF919F918F912F910F900FBE0F90CC
:100A00001F9018958081F4CF1F920F920FB60F920E
:100A100011242F933F934F935F936F937F938F9303
:100A20009F93AF93BF93CF93DF93EF93FF93809107
:100A30009C01C0916D02D0E087FF24C01092850018
:100A40001092840080919C018F5F80939C01809123
:100A50009C01082E000C990B8C179D0724F48091A3
:100A60009C018C30C4F180918400909185000496A3
:100A700080349C4908F47AC080918400909185006C
:100A8000049676C080919C01082E000C990B8C175F
:100A90009D07C4F6E0919C018E2FEE0F990BFC018F
:100AA000EE0FFF1FE80FF91FE75BFD4F808186FF08
:100AB000C9CFE0919C018E2FEE0F990BFC01EE0F38
:100AC000FF1FE80FF91FE75BFD4F808160E08F7328
:100AD0000E94ED00B7CF2091840030918500E09115
:100AE0009C018E2FEE0F990BFC01EE0FFF1FE80FFC
:100AF000F91FE75BFD4F81819281820F931F9093D5
:100B0000890080938800E0919C018E2FEE0F990B55
:100B1000FC01EE0FFF1FE80FF91FE75BFD4F80811F
:100B200086FF11C0E0919C018E2FEE0F990BFC0106
:100B3000EE0FFF1FE80FF91FE75BFD4F808161E0BB
:100B40008F730E94ED00FF91EF91DF91CF91BF91E4
:100B5000AF919F918F917F916F915F914F913F9155
:100B60002F910F900FBE0F901F90189580E49CE975
:100B700090938900809388008FEF80939C01E3CF4E
:100B80001092AF011092AE0188EE93E0A0E0B0E0C9
:100B90008093B0019093B101A093B201B093B301DF
:100BA0008AE091E09093AD018093AC0185EC90E0F8
:100BB0009093B9018093B80184EC90E09093BB01CD
:100BC0008093BA0180EC90E09093BD018093BC01CA
:100BD00081EC90E09093BF018093BE0182EC90E0A5
:100BE0009093C1018093C00186EC90E09093C30183
:100BF0008093C2011092C5011092C6011092C701E4
:100C00001092C80180916D028C3030F591E0980F00
:100C100090936D028093740290E0FC01EE0FFF1F31
:100C2000E80FF91FE75BFD4F88EB9BE09283818320
:100C300010926F0210926E02109271021092700266
:100C4000109273021092720250E040E06AE171E08B
:100C50008EE692E00C9437048FEF80937402E8CF15
:100C6000CF93DF9300D000D000D0CDB7DEB778941B
:100C700084B5826084BD84B5816084BD85B58260A1
:100C800085BD85B5816085BD80916E008160809352
:100C90006E001092810080918100826080938100BB
:100CA00080918100816080938100809180008160CB
:100CB000809380008091B10084608093B100809126
:100CC000B00081608093B00080917A00846080934E
:100CD0007A0080917A00826080937A0080917A0015
:100CE000816080937A0080917A00806880937A0096
:100CF0001092C100E091BC01F091BD0182E08083BF
:100D0000E091B801F091B9011082E091BA01F0913F
:100D1000BB018FEC80831092C401E091C001F0917F
:100D2000C10186E08083E091BE01F091BF01808126
:100D300080618083E091BE01F091BF018081886075
:100D40008083E091BE01F091BF0180818068808343
:100D5000E091BE01F091BF0180818F7D80838BE1A6
:100D600091E00E94E303809174028C3008F051C03E
:100D700061E080E10E94390180917402282F30E007
:100D8000F901EE0FFF1FE20FF31FE75BFD4F9081AC
:100D9000907C9061908310927502109276022CE004
:100DA000622F0E947509829FB001112430E020E07B
:100DB000AB01420F531FFA01EE0FFF1FE40FF51FA7
:100DC000E75BFD4F908196FD16C02F5F3F4F2C30A3
:100DD000310571F781110FC01092800082E080937D
:100DE00081001092850010928400B19A80916F006A
:100DF000826080936F00E09174028E2F90E0FC017E
:100E0000EE0FFF1FE80FF91FE75BFD4F8081806445
:100E1000808361E08FE00E94390160E08EE00E94F3
:100E2000390161E082E00E94390161E084E00E94C2
:100E3000390161E087E00E94390161E088E00E94A9
:100E4000390161E085E00E94390161E086E00E949D
:100E500039011092A2011092A1011092A0011092EA
:100E60009F0110929E0110929D018AE590E00E94E0
:100E7000880080E0A82E80E0B82E64E670E085E06F
:100E80000E946A0164E670E086E00E946A018CEAD2
:100E900091E00E947C02892B09F431C18CEA91E037
:100EA0000E945A028A3009F006C11A8219821C82F5
:100EB0001B821E821D8260916E0270916F0261150D
:100EC000710541F04091720250917302CE0101967A
:100ED0000E943704C980DA80C114D10431F00D8139
:100EE0001E8176010115110519F56DE271E0CE0143
:100EF00001960E94FA03882309F450C00E94CB0394
:100F000060ED77E080E090E00E94EC010E949B039E
:100F100089819A81009711F00E94230A50E040E0F5
:100F20006AE171E08EE692E00E943704B0CF74016E
:100F300047018FEF881A980AF7018081082E000C6C
:100F4000990B0E94CF08892B91F7015011090C0DC4
:100F50001D1DF8018081082E000C990B0E94CF08FE
:100F6000892B31F00E151F0518F001501109F1CF32
:100F7000A8014F5F5F4F4E195F095E834D83CE140A
:100F8000DF0420F4B701C6010E94690BE981FA81F0
:100F90008D819E81E80FF91F1082A7CF63E471E075
:100FA000CE0101960E94FA03882319F00E948B0358
:100FB000A7CF6AE571E0CE0101960E94FA0388236B
:100FC00039F00E94AB0368EE73E080E090E09CCFC4
:100FD0006DE671E0CE0101960E94FA03882319F0B4
:100FE0000E94BB03F0CF61E871E0CE0101960E9440
:100FF000FA03882319F00E942B038ACF64E271E080
:10100000CE0101960E94FA03882361F064E271E048
:10101000CE0101960E94FA03882309F477CF0E943B
:10102000CB03F4CF6AE371E0CE0101960E94FA038C
:10103000882361F06AE371E0CE0101960E94FA0311
:10104000882309F463CF0E948B03F4CF61E571E03C
:10105000CE0101960E94FA03882361F061E571E0F8
:10106000CE0101960E94FA03882309F44FCF0E9413
:10107000AB03F4CF64E671E0CE0101960E94FA035F
:10108000882361F064E671E0CE0101960E94FA03C4
:10109000882309F43BCF0E94BB03F4CF68E771E0DB
:1010A000CE0101960E94FA038111A5CF8CE891E050
:1010B0000E94E3032DCF89831A820091720210915E
:1010C00073020F5F1F4FB8018EE692E00E940F047B
:1010D000882309F4DCCE20916E0230916F0280915A
:1010E000720290917302BE016F5F7F4F820F931F58
:1010F0000E947B0B1093730200937202C8CE8CEA9D
:1011000091E00E947C02181619069CF48CEA91E08A
:101110000E945A02182F682F8CEA91E00E94BE02AA
:101120000E94DB03183679F184F4123631F1163659
:10113000C9F0A114B10409F4A0CE0E94880288234A
:1011400009F49BCE0E94000098CE1237C9F01337E5
:1011500089F01C3671F70E94AB0368EE73E080E003
:1011600090E006C00E94CB0360ED77E080E090E065
:101170000E94EC010E949B03DCCF0E948B03F4CF02
:101180000E94BB03EACF0E942B03D3CF80916E0253
:1011900090916F02009711F00C94230A0895911119
:1011A0000C94D808803219F089508550C8F70895FA
:1011B000992788270895052E97FB1EF400940E9416
:1011C000F20857FD07D00E94440907FC03D04EF4F3
:1011D0000C94F20850954095309521953F4F4F4F14
:1011E0005F4F089590958095709561957F4F8F4FD3
:1011F0009F4F08950E946609A59F900DB49F900D82
:10120000A49F800D911D11240895B7FF0C94FA0836
:101210000E94FA08821B930B08952F923F924F92DF
:101220005F926F927F928F929F92AF92BF92CF9276
:10123000DF92EF92FF920F931F93CF93DF93CDB77F
:10124000DEB7CA1BDB0B0FB6F894DEBF0FBECDBFF7
:1012500009942A88398848885F846E847D848C84C8
:101260009B84AA84B984C884DF80EE80FD800C81D1
:101270001B81AA81B981CE0FD11D0FB6F894DEBFB4
:101280000FBECDBFED010895A1E21A2EAA1BBB1B14
:10129000FD010DC0AA1FBB1FEE1FFF1FA217B30742
:1012A000E407F50720F0A21BB30BE40BF50B661F58
:1012B000771F881F991F1A9469F76095709580951C
:1012C00090959B01AC01BD01CF010895A29FB00193
:1012D000B39FC001A39F700D811D1124911DB29F6A
:1012E000700D811D1124911D0895991B79E004C092
:1012F000991F961708F0961B881F7A95C9F7809555
:101300000895EE0FFF1F0590F491E02D09940F93BF
:101310001F93CF93DF938230910510F482E090E029
:10132000E0917902F0917A0230E020E0B0E0A0E0B4
:10133000309799F42115310509F44AC0281B390B5F
:1013400024303105D8F58A819B816115710589F1B9
:10135000FB0193838283FE0111C040815181028190
:10136000138148175907E0F04817590799F4109767
:1013700061F012960C93129713961C933296CF013C
:10138000DF91CF911F910F910895009379021093EF
:101390007A02F4CF2115310551F04217530738F086
:1013A000A901DB019A01BD01DF01F801C1CFEF0105
:1013B000F9CF90937A0280937902CDCFFE01E20FAC
:1013C000F31F819391932250310939832883D7CF1A
:1013D0002091770230917802232B41F42091020171
:1013E000309103013093780220937702209100011D
:1013F000309101012115310541F42DB73EB74091DF
:10140000040150910501241B350BE0917702F09106
:101410007802E217F307A0F42E1B3F0B28173907B9
:1014200078F0AC014E5F5F4F2417350748F04E0F40
:101430005F1F5093780240937702819391939FCFDF
:10144000F0E0E0E09CCFCF93DF930097E9F0FC0160
:10145000329713821282A0917902B0917A02ED0143
:1014600030E020E01097A1F420813181820F931F9A
:1014700020917702309178022817390709F061C06E
:10148000F0937802E0937702DF91CF910895EA011B
:10149000CE17DF07E8F54A815B819E0141155105B2
:1014A000B1F7E901FB83EA8349915991C40FD51F34
:1014B000EC17FD0761F4808191810296840F951FDE
:1014C000E90199838883828193819B838A83F0E0F9
:1014D000E0E012968D919C9113970097B9F52D91AC
:1014E0003C911197CD010296820F931F20917702B4
:1014F000309178022817390739F6309751F5109254
:101500007A0210927902B0937802A0937702BCCF4E
:10151000D383C28340815181840F951FC817D90797
:1015200061F44E5F5F4F88819981480F591F518345
:1015300040838A819B81938382832115310509F041
:10154000B0CFF0937A02E09379029ECFFD01DC01E7
:10155000C0CF13821282D7CFB0E0A0E0E2EBFAE076
:101560000C940F098C01009751F4CB010E9487095C
:101570008C01C801CDB7DEB7E0E10C942B09FC016A
:10158000E60FF71F9C0122503109E217F30708F418
:101590009DC0D901CD91DC911197C617D70798F05E
:1015A000C530D10530F3CE0104978617970708F3AD
:1015B000C61BD70B2297C193D1936D937C93CF0118
:1015C0000E94230AD6CF5B01AC1ABD0A4C018C0ED7
:1015D0009D1EA0917902B0917A02512C412CF12CE0
:1015E000E12C109731F5809177029091780288155F
:1015F000990509F05CC04616570608F058C080915E
:10160000000190910101009741F48DB79EB7409180
:10161000040150910501841B950BE817F90708F0A8
:1016200055C0F0937802E0937702F90171836083EB
:10163000A0CF8D919C91119712966C901297139652
:101640007C901397A815B90559F56C0142E0C40EBA
:10165000D11CCA14DB0420F1AC014A195B09DA0180
:101660001296159780F06282738251834083D9016C
:101670006D937C93E114F10471F0D7011396FC9300
:10168000EE93129776CF22968C0F9D1FF9019183CE
:101690008083F301EFCFF0937A02E093790269CF70
:1016A0004816590608F42C017D01D3019ACFCB01CD
:1016B0000E9487097C01009749F0AE01B8010E94A1
:1016C000690BC8010E94230A870153CF10E000E094
:1016D00050CFFB01DC0102C001900D9241505040FF
:1016E000D8F70895FB01DC018D910190801901105C
:1016F000D9F3990B0895FB01DC0101900D920020B4
:10170000E1F7089510E0CDE5D0E004C0FE010E94AD
:1017100081092196CE35D107C9F7F894FFCF000093
:101720007B02800000000000BE021E024B020B0381
:101730007C025A026E020D0A005374617274696E63
:1017400067006A6F79737469636B5F6D6F76655F4D
:10175000666F7277617264006A6F79737469636B24
:101760005F6D6F76655F6261636B77617264006A5B
:101770006F79737469636B5F7475726E5F6C6566A5
:1017800074006A6F79737469636B5F7475726E5FEE
:101790007269676874006A6F79737469636B5F73E9
:1017A00068616B655F6865616400496E76616C694C
:0A17B0006420436F6D6D616E6400EC
:107E0000112484B714BE81FFF0D085E080938100F7
:107E100082E08093C00088E18093C10086E0809377
:107E2000C20080E18093C4008EE0C9D0259A86E02C
:107E300020E33CEF91E0309385002093840096BBD3
:107E4000B09BFECF1D9AA8958150A9F7CC24DD24C4
:107E500088248394B5E0AB2EA1E19A2EF3E0BF2EE7
:107E6000A2D0813461F49FD0082FAFD0023811F036
:107E7000013811F484E001C083E08DD089C08234E0
:107E800011F484E103C0853419F485E0A6D080C0E4
:107E9000853579F488D0E82EFF2485D0082F10E0AE
:107EA000102F00270E291F29000F111F8ED06801E7
:107EB0006FC0863521F484E090D080E0DECF843638
:107EC00009F040C070D06FD0082F6DD080E0C81688
:107ED00080E7D80618F4F601B7BEE895C0E0D1E017
:107EE00062D089930C17E1F7F0E0CF16F0E7DF06D8
:107EF00018F0F601B7BEE89568D007B600FCFDCFD4
:107F0000A601A0E0B1E02C9130E011968C91119780
:107F100090E0982F8827822B932B1296FA010C0160
:107F200087BEE89511244E5F5F4FF1E0A038BF0790
:107F300051F7F601A7BEE89507B600FCFDCF97BE46
:107F4000E89526C08437B1F42ED02DD0F82E2BD052
:107F50003CD0F601EF2C8F010F5F1F4F84911BD097
:107F6000EA94F801C1F70894C11CD11CFA94CF0C13
:107F7000D11C0EC0853739F428D08EE10CD085E9AC
:107F80000AD08FE07ACF813511F488E018D01DD067
:107F900080E101D065CF982F8091C00085FFFCCF94
:107FA0009093C60008958091C00087FFFCCF809118
:107FB000C00084FD01C0A8958091C6000895E0E648
:107FC000F0E098E1908380830895EDDF803219F02E
:107FD00088E0F5DFFFCF84E1DECF1F93182FE3DFCA
:107FE0001150E9F7F2DF1F91089580E0E8DFEE27F6
:047FF000FF270994CA
:027FFE00040479
:00000001FF
